:020000040000FA
:100000000C945C000C9479000C9479000C947900A9
:100010000C9479000C9479000C9479000C9479007C
:100020000C9479000C9479000C9479000C9479006C
:100030000C9479000C9479000C9479000C9479005C
:100040000C94A0000C9479000C9479000C94790025
:100050000C9479000C9479000C9479000C9479003C
:100060000C9479000C947900000000002400270013
:100070002A0000000000250028002B0004040404CE
:100080000404040402020202020203030303030342
:10009000010204081020408001020408102001021F
:1000A00004081020000000080002010000030407FB
:1000B000000000000000000011241FBECFEFD8E0B8
:1000C000DEBFCDBF11E0A0E0B1E0ECECF3E002C098
:1000D00005900D92A035B107D9F721E0A0E5B1E078
:1000E00001C01D92A935B207E1F70E94EA000C9405
:1000F000E4010C9400003FB7F89480915501909171
:100100005601A0915701B091580126B5A89B05C092
:100110002F3F19F00196A11DB11D3FBFBA2FA92F86
:10012000982F8827BC01CD01620F711D811D911D83
:1001300042E0660F771F881F991F4A95D1F70895EF
:100140001F920F920FB60F9211242F933F938F930C
:100150009F93AF93BF938091510190915201A091D1
:100160005301B09154013091500123E0230F2D37FA
:1001700058F50196A11DB11D2093500180935101A6
:1001800090935201A0935301B09354018091550173
:1001900090915601A0915701B09158010196A11D6F
:1001A000B11D8093550190935601A0935701B093D0
:1001B0005801BF91AF919F918F913F912F910F90D7
:1001C0000FBE0F901F90189526E8230F0296A11DD1
:1001D000B11DD2CF789484B5826084BD84B581602E
:1001E00084BD85B5826085BD85B5816085BD809102
:1001F0006E00816080936E0010928100809181007A
:100200008260809381008091810081608093810071
:10021000809180008160809380008091B100846033
:100220008093B1008091B00081608093B000809194
:100230007A00846080937A0080917A008260809353
:100240007A0080917A00816080937A0080917A00B0
:10025000806880937A001092C10030E020E0F901BC
:10026000E057FF4F4491F901E458FF4F84918823F0
:1002700099F090E0880F991FFC01E859FF4FA59174
:10028000B491FC01EE58FF4F859194918FB7F8948B
:10029000EC91E42BEC938FBF2F5F3F4F293031055A
:1002A000F1F600E511E040E0E42E40E0F42EC0E07D
:1002B000D1E090E080E0FC01EC55FF4F3491FC016F
:1002C000E057FF4F2491FC01E458FF4FE491EE23E7
:1002D00009F1DE01A80FB91F4C91332359F03330D7
:1002E00009F459C008F04CC0313009F45AC032301A
:1002F00009F45BC0F0E0EE0FFF1FEE58FF4FA59131
:10030000B4913FB7F894EC9141115CC020952E2335
:100310002C933FBF01968830910509F0CCCF0E9405
:100320007B002B013C0188EE882E83E0982EA12CC7
:10033000B12C0E947B006419750986099709683EF3
:10034000734081059105A8F321E0821A9108A10864
:10035000B10888EE480E83E0581E611C711C8114A0
:100360009104A104B10429F728960C171D0709F080
:10037000A0CFE114F10409F49ACF0E94000097CFB6
:100380003730B1F03830D1F0343009F0B3CF30919C
:1003900080003F7D03C0309180003F773093800024
:1003A000A9CF34B53F7734BDA5CF34B53F7DFBCF62
:1003B0003091B0003F773093B0009CCF3091B000C7
:1003C0003F7DF9CF2E2BA4CFF894FFCF010101017F
:1003D0000101000000010100000000000101000116
:1003E0000100010001010101000001000001010004
:1003F00000010100010001010001010001000101F3
:1004000001010100010101000000000001010101E2
:0C041000010101000101010000010100D8
:107E0000112484B714BE81FFF0D085E080938100F7
:107E100082E08093C00088E18093C10086E0809377
:107E2000C20080E18093C4008EE0C9D0259A86E02C
:107E300020E33CEF91E0309385002093840096BBD3
:107E4000B09BFECF1D9AA8958150A9F7CC24DD24C4
:107E500088248394B5E0AB2EA1E19A2EF3E0BF2EE7
:107E6000A2D0813461F49FD0082FAFD0023811F036
:107E7000013811F484E001C083E08DD089C08234E0
:107E800011F484E103C0853419F485E0A6D080C0E4
:107E9000853579F488D0E82EFF2485D0082F10E0AE
:107EA000102F00270E291F29000F111F8ED06801E7
:107EB0006FC0863521F484E090D080E0DECF843638
:107EC00009F040C070D06FD0082F6DD080E0C81688
:107ED00080E7D80618F4F601B7BEE895C0E0D1E017
:107EE00062D089930C17E1F7F0E0CF16F0E7DF06D8
:107EF00018F0F601B7BEE89568D007B600FCFDCFD4
:107F0000A601A0E0B1E02C9130E011968C91119780
:107F100090E0982F8827822B932B1296FA010C0160
:107F200087BEE89511244E5F5F4FF1E0A038BF0790
:107F300051F7F601A7BEE89507B600FCFDCF97BE46
:107F4000E89526C08437B1F42ED02DD0F82E2BD052
:107F50003CD0F601EF2C8F010F5F1F4F84911BD097
:107F6000EA94F801C1F70894C11CD11CFA94CF0C13
:107F7000D11C0EC0853739F428D08EE10CD085E9AC
:107F80000AD08FE07ACF813511F488E018D01DD067
:107F900080E101D065CF982F8091C00085FFFCCF94
:107FA0009093C60008958091C00087FFFCCF809118
:107FB000C00084FD01C0A8958091C6000895E0E648
:107FC000F0E098E1908380830895EDDF803219F02E
:107FD00088E0F5DFFFCF84E1DECF1F93182FE3DFCA
:107FE0001150E9F7F2DF1F91089580E0E8DFEE27F6
:047FF000FF270994CA
:027FFE00040479
:00000001FF
